:020000040800F2
:1000000000000120DD0200082D0300082D03000878
:100010002D0300082D0300082D0300080000000038
:100020000000000000000000000000002D03000898
:100030002D030008000000002D0300082D03000818
:100040002D0300082D0300082D0300082D030008D0
:100050002D0300082D0300082D0300082D030008C0
:100060002D0300082D0300082D0300082D030008B0
:100070002D0300082D0300082D0300082D030008A0
:100080002D0300082D0300082D03000800000000C8
:100090000000000000000000000000002D03000828
:1000A0002D0300082D0300082D0300082D03000870
:1000B0002D0300082D0300082D0300082D03000860
:1000C0002D0300082D0300082D0300082D03000850
:1000D0002D0300082D0300082D0300080000000078
:1000E0002D0300082D0300082D0300080000000068
:1000F0000000000000000000000000002D030008C8
:10010000000000002D0300082D0300082D03000847
:1001100000000000000000000000000000000000DF
:100120002D0300082D0300082D0300082D030008EF
:100130002D03000800000000000000000000000087
:100140000000000000000000000000002D03000877
:100150002D0300082D0300082D0300082D030008BF
:100160002D0300082D03000800000000000000001F
:10017000000000000000000000000000000000007F
:10018000000000002D030008000000000000000037
:040190002D03000833
:1001940010B5054C237833B9044B13B10448AFF3BD
:1001A40000800123237010BD000000200000000027
:1001B4007803000808B5034B1BB103490348AFF3A8
:1001C400008008BD0000000004000020780300083F
:1001D40080B487B000AF354B1B6B344A43F0020345
:1001E4001363334B1B68324A23F0C0031360304B54
:1001F400DB682F4A23F04003D3602D4BDB682C4A85
:1002040043F04003D3602A4B1B68294A23F4A843D4
:100214001360274B1B68264A43F4A8431360244BFE
:100224005B68234A23F0E00353600023FB75204BF3
:100234001B6903F00803BB6000233B6102E03B69D8
:1002440001333B613B69B3F57A7FF8D3184B1B69E3
:10025400DBB203F00803FB71BB68002BE7D0FB792A
:10026400BA689A42E3D0FB7D0133FB75FB7D082B12
:1002740001D10023FB750E4B5B690D4A23F0E003AB
:1002840053610B4B5B69FA7D52011146084A0B43DB
:1002940053610023FB6002E0FB680133FB60FB68F1
:1002A40042F20F729342F7D9C1E700BF003802400F
:1002B4000004024080B400AF064BD3F88830054AEE
:1002C40043F47003C2F8883000BFBD465DF8047B78
:1002D400704700BF00ED00E0DFF834D00D480E4950
:1002E4000E4A002302E0D458C4500433C4188C428C
:1002F400F9D30B4A0B4C002301E013600432A242F1
:10030400FBD3FFF7D7FF00F011F8FFF761FF704749
:1003140000000120000000200000002098030008D5
:10032400000000201C000020FEE7000070B50D4D09
:100334000D4C641BA4100026A64209D10B4D0C4C95
:1003440000F018F8641BA4100026A64205D170BD65
:1003540055F8043B98470136EEE755F8043B9847B7
:100364000136F2E7900300089003000890030008A8
:1003740094030008F8B500BFF8BC08BC9E4670475B
:0C038400F8B500BFF8BC08BC9E467047EE
:04039000B9010008A7
:0403940095010008C7
:04000005080002DD10
:00000001FF
